:020000040800F2
:1000000000000220050700085507000855070008F2
:1000100055070008550700085507000800000000B4
:10002000000000000000000000000000550700086C
:10003000550700080000000055070008A505000846
:100040005507000855070008550700085507000820
:100050005507000855070008B305000855070008B4
:100060005507000855070008550700085507000800
:1000700055070008550700085507000855070008F0
:1000800055070008550700085507000855070008E0
:1000900055070008550700085507000855070008D0
:1000A00055070008550700085507000855070008C0
:1000B00055070008550700085507000855070008B0
:1000C00055070008550700085507000855070008A0
:1000D0005507000855070008550700085507000890
:1000E0005507000855070008550700085507000880
:1000F0005507000855070008550700085507000870
:10010000550700085507000855070008550700085F
:10011000550700085507000855070008550700084F
:10012000550700085507000855070008550700083F
:10013000550700085507000855070008550700082F
:10014000550700085507000855070008550700081F
:10015000550700085507000855070008550700080F
:1001600055070008550700085507000855070008FF
:100170005507000855070008550700080000000053
:080180005507000855070008AF
:1001880010B5054C237833B9044B13B10448AFF3C9
:1001980000800123237010BD0C0000200000000027
:1001A800A007000808B5034B1BB103490348AFF388
:1001B800008008BD0000000010000020A007000813
:1001C80038B50E4A0E4B054618784FF47A73B3FBD0
:1001D800F0F31068B0FBF3F000F0BAF8044658B931
:1001E8000F2D09D8024629464FF0FF3000F06EF86F
:1001F800044B20461D6038BD012038BD0800002092
:10020800000000200400002008B50B4B1A6842F4D7
:1002180000721A601A6842F480621A601A6842F41E
:1002280080721A60032000F03FF80020FFF7C8FF33
:1002380000F036FA002008BD003C0240034A044B97
:1002480011681B780B441360704700BF280000201A
:1002580000000020014B1868704700BF28000020EC
:1002680038B50446FFF7F6FF631C1CBF054B1B7827
:10027800054618BFE418FFF7EDFF401B8442FAD883
:1002880038BD00BF00000020024A136823F00203B3
:100298001360704710E000E0024A136843F002035D
:1002A8001360704710E000E0074AD36823F4E06366
:1002B8001B041B0C43F0BF63000243F4003300F43B
:1002C800E0600343D360704700ED00E0174B30B5A2
:1002D800DC68C4F30224C4F10703251D042B28BFDE
:1002E8000423062D4FF0010505FA03F303F1FF334C
:1002F8008CBF033C00241940A14005FA04F4013CDA
:100308002240002842EA01024FEA0212ADBF00F182
:10031800604000F00F00064B00F56140B5BFD2B257
:10032800D2B21A5480F8002330BD00BF00ED00E0BF
:1003380014ED00E0002808DB4209012300F01F004B
:1003480003FA00F0014B43F82200704700E100E097
:100358000138B0F1807F0AD2064B074A5860F02175
:1003680082F823100020072298601A607047012045
:10037800704700BF10E000E000ED00E0704708B5EE
:10038800FFF7FCFF08BD00002DE9F04F85B00B68B2
:10039800DFF8AC81684ADFF8AC91019300230124AF
:1003A800019D9C402540AC4240F0B0804C6824F050
:1003B800100C0CF1FF36012E4FEA430E12D8876855
:1003C800032606FA0EF627EA0607CE6806FA0EF6A0
:1003D8003E4386604768C4F3001627EA05079E4037
:1003E8003E4346600326C76806FA0EF6F64307EA58
:1003F800060A8F6807FA0EF747EA0A07BCF1020FE8
:10040800C76016D14FEAD30A00EB8A0A03F0070B3C
:10041800DAF820704FEA8B0B4FF00F0C0CFA0BFC3C
:1004280027EA0C0C0F6907FA0BF747EA0C07CAF81A
:10043800207007683E4004F0030707FA0EFE4EEAF4
:1004480006060660E60061D54FF0000BCDF80CB04B
:10045800D8F84470394E47F48047C8F84470D8F843
:10046800447007F480470397039F23F0030707F1BD
:10047800804707F59C3703F0030CD7F808A04FEA2C
:100488008C0C4FF00F0E0EFA0CFEB0422AEA0E0E3C
:1004980043D006F58066B04241D006F58066B0428A
:1004A8003FD006F58066B0423DD006F58066B04282
:1004B8003BD048453BD006F50066B04239D006F53A
:1004C8008066B04214BF0826072606FA0CF646EAEC
:1004D8000E06BE601668EF4314F4803F0CBF3E4022
:1004E8002E431660566814F4003F0CBF3E402E435E
:1004F8005660966814F4801F0CBF3E402E439660E9
:10050800D668A40254BF3E402E43D6600133102B58
:100518007FF445AF05B0BDE8F08F5E46D5E701260C
:10052800D3E70226D1E70326CFE70426CDE7052641
:10053800CBE70626C9E700BF003C014000000240A7
:1005480000380240001402400369194214BF012018
:1005580000207047436931EA030308BF0904816139
:100568007047000008B5044B5969014202D0586130
:1005780000F078F808BD00BF003C0140064A136946
:10058800012923F00403136101D130BF704740BF34
:1005980020BF20BF704700BF00ED00E008B5FFF79F
:1005A8004DFEBDE80840FFF7EABE0120FFF7DABFBD
:1005B800F7B51B4B1B4C1C48002500951A6B42F0E5
:1005C80008021A631A6B02F008020092009A019559
:1005D8001A6B42F001021A631B6B03F001030193CB
:1005E800019B01274FF4704384E888000326022307
:1005F8002146A360E660FFF7C7FE0C4B0C4863601A
:1006080021462760E660FFF7BFFE2A460F21062035
:10061800FFF75CFE0620FFF78DFE03B0F0BD00BFBC
:10062800003802402C000020000C0240000011108D
:100638000000024008B5FFF7E7FDFFF7B9FFFFF735
:1006480023FE074C01210020FFF798FF4FF4FA70B2
:10065800FFF706FE4FF470412046FFF77BFFF1E7F6
:10066800000C024010B501210B48FFF76DFF90B157
:10067800FFF712FE084C01212046FFF765FF00280E
:10068800F9D13220FFF7ECFD4FF470410348BDE883
:100698001040FFF75FBF10BD00000240000C024091
:1006A80008B50320FFF700FE0C4A536A43F4E02321
:1006B8005362002211466FF00B00FFF707FE00227D
:1006C80011466FF00A00FFF701FE002211466FF095
:1006D8000900BDE80840FFF7F9BD00BF00ED00E0E4
:1006E800054BD3F8882042F47002C3F888204FF0F5
:1006F80000629A60704700BF00ED00E0DFF834D078
:10070800002103E00C4B5B58435004310B480C4B61
:1007180042189A42F6D30B4A02E0002342F8043BFF
:10072800094B9A42F9D3FFF7DBFF00F011F8FFF706
:1007380081FF704700000220C00700080000002069
:100748000C0000200C00002040000020FEE7000004
:1007580070B50D4E0D4CA41BA4100025A54209D15F
:100768000B4E0C4C00F018F8A41BA4100025A54251
:1007780005D170BD56F8253098470135EEE756F893
:10078800253098470135F2E7B8070008B807000890
:10079800B8070008BC070008F8B500BFF8BC08BCDB
:1007A8009E467047F8B500BFF8BC08BC9E46704727
:0407B800AD01000887
:0407BC0089010008A7
:0C07C00001000000100000000024F40004
:0400000508000705E3
:00000001FF
