:020000040800F2
:1000000000000220710B0008C10B0008C10B0008A2
:10001000C10B0008C10B0008C10B00080000000064
:10002000000000000000000000000000C10B0008FC
:10003000C10B000800000000C10B000839090008CE
:10004000C10B0008C10B0008C10B0008C10B000860
:10005000C10B0008C10B0008C10B0008C10B000850
:10006000C10B0008C10B0008C10B0008C10B000840
:10007000C10B0008C10B0008C10B0008C10B000830
:10008000C10B0008C10B0008C10B0008C10B000820
:10009000C10B0008C10B0008C10B0008C10B000810
:1000A000C10B0008C10B0008C10B0008C10B000800
:1000B000C10B0008C10B0008C10B0008C10B0008F0
:1000C000C10B0008C10B0008C10B0008C10B0008E0
:1000D000C10B0008C10B0008C10B0008C10B0008D0
:1000E000C10B0008C10B0008C10B0008C10B0008C0
:1000F000C10B0008C10B0008C10B0008C10B0008B0
:10010000C10B0008C10B0008C10B0008C10B00089F
:10011000C10B0008C10B0008C10B0008C10B00088F
:10012000C10B0008C10B0008C10B0008C10B00087F
:10013000C10B0008C10B0008C10B0008C10B00086F
:10014000C10B0008C10B0008C10B0008C10B00085F
:10015000C10B0008C10B0008C10B0008C10B00084F
:10016000C10B0008C10B0008C10B0008C10B00083F
:10017000C10B0008C10B0008C10B00080000000003
:08018000C10B0008C10B0008CF
:1001880010B5054C237833B9044B13B10448AFF3C9
:1001980000800123237010BD0C0000200000000027
:1001A8000C0C000808B5034B1BB103490348AFF317
:1001B800008008BD00000000100000200C0C0008A2
:1001C80038B50E4A0E4B054618784FF47A73B3FBD0
:1001D800F0F31068B0FBF3F000F0AEFA044658B93B
:1001E8000F2D09D8024629464FF0FF3000F070FA6B
:1001F800044B20461D6038BD012038BD0800002092
:10020800000000200400002008B50B4B1A6842F4D7
:1002180000721A601A6842F480621A601A6842F41E
:1002280080721A60032000F041FA0020FFF7C8FF2F
:1002380000F03EFC002008BD003C0240034A044B8D
:1002480011681B780B441360704700BF2C00002016
:1002580000000020014B1868704700BF2C000020E8
:1002680038B50446FFF7F6FF631C1CBF054B1B7827
:10027800054618BFE418FFF7EDFF401B8442FAD883
:1002880038BD00BF0000002038B5044600286ED0F5
:1002980090F820300BB900F02BFC2268136823F08B
:1002A80002031360FFF7D6FF054623685A689107D3
:1002B80051D41A6842F001021A60FFF7CBFF0546D5
:1002C80023685A68D20754D5227E012A1A680CBFBF
:1002D80042F0800222F080021A60627E012A1A68C7
:1002E8000CBF42F0400222F040021A60A27E012AAE
:1002F8001A680CBF42F0200222F020021A60E27E47
:10030800012A1A680CBF22F0100242F010021A608B
:10031800227F012A1A680CBF42F0080222F0080264
:100328001A60627F012A1A680CBF42F0040222F0A8
:1003380004021A60E168A2680A4321690A436169F4
:100348000A43616801390A43DA61002001236062C7
:1003580084F8203038BDFFF77DFF401B0A28A4D958
:10036800636A43F400336362052384F82030012074
:1003780038BDFFF76FFF401B0A28A1D9F0E700003E
:1003880090F82030013B012B30B579D83F4BD3F89A
:10039800002242F00102C3F80022D3F8002222F41E
:1003A8007C52C3F80022D3F80022486A42EA0022AD
:1003B800C3F800224869D3F81C5200F01F02012438
:1003C8009440E2431540C3F81C52CD69002D36D144
:1003D800D3F80C521540C3F80C52C000CD688B8876
:1003E80000F1804000F5C84043EA0543C0F84032B8
:1003F8008D680B8843EA0543C0F844328869234B6B
:10040800002835D1D3F804021040C3F80402086963
:1004180090BBD3F814020240C3F814220B6A1B4A9B
:10042800012B02BFD2F81C322343C2F81C32D2F887
:10043800003223F00103C2F80032002030BD012D44
:10044800DCD1D3F80C522543C3F80C520B688D88C5
:1004580045EA0345C30003F1804303F5C84388898F
:10046800C3F840528D6840EA0540C3F84402C5E726
:10047800D3F804022043C8E7D3F814222243CBE779
:10048800436A43F480234362012030BD0064004086
:1004980038B590F82030012B04461FD1026802239A
:1004A80080F82030136823F001031360FFF7D2FEB1
:1004B80005462368586810F0010001D1606238BD14
:1004C800FFF7C8FE401B0A28F3D9636A43F40033D8
:1004D8006362052384F82030012038BD436A43F461
:1004E80000234362F8E7F0B590F820500668013D14
:1004F800012DB46840D814F0E05F39D0C4F301642A
:10050800032C4FF0010505D1436A43F4000343620D
:100518000120F0BDA5401D608868CF6804F118036C
:1005280008BB086847EA40501B012401F050331902
:100538000869097DC3F88401012902BFD3F8841131
:1005480041F48071C3F8841134445168C4F88C11A3
:100558001268C4F88821D3F8802142F00102C3F858
:1005680080210020F0BD4D68384340EAC500DBE734
:10057800436A43F40013CAE7436A43F48023C6E797
:1005880090F82030013B012B08D803689B68890646
:1005980031EA030314BF0120002070470020704790
:1005A800F0B590F82040013C012C6BD8066841B9A1
:1005B800F468A40707D1436A43F400134362012097
:1005C800F0BD3469F5E70C013519D5F8B07107F0BD
:1005D80004079760002F4BD1D5F8B0717F0D1760D5
:1005E800D5F8B07107F00207D760D5F8B47107F0F5
:1005F8000F071761D5F8B471D5F8B4512644C7F37D
:1006080007272D0C97615561D6F8B8211A70026832
:100618002244D2F8B821120A5A7002682244D2F849
:10062800B821120C9A7002682244D2F8B821120E2E
:10063800DA7002682244D2F8BC211A710268224496
:10064800D2F8BC21120A5A7102682244D2F8BC219D
:10065800120C9A7102681444D4F8BC21120EDA7193
:10066800036851B9DA6842F02002DA600020F0BD70
:10067800D5F8B071FF085760B2E71A6942F0200256
:100688001A61F3E7436A43F4802397E790F8203030
:10069800013B012B07D8036819B9D86800F003009B
:1006A80070471869FAE7002070470000074AD368C6
:1006B80023F4E0631B041B0C43F0BF63000243F404
:1006C800003300F4E0600343D360704700ED00E0BE
:1006D800174B30B5DC68C4F30224C4F10703251DA9
:1006E800042B28BF0423062D4FF0010505FA03F358
:1006F80003F1FF338CBF033C00241940A14005FAE5
:1007080004F4013C2240002842EA01024FEA0212A6
:10071800ADBF00F1604000F00F00064B00F56140EE
:10072800B5BFD2B2D2B21A5480F8002330BD00BF90
:1007380000ED00E014ED00E00138B0F1807F0AD24E
:10074800064B074A5860F02182F823100020072240
:1007580098601A6070470120704700BF10E000E001
:1007680000ED00E0704708B5FFF7FCFF08BD00008A
:100778002DE9F04F85B00B68DFF8AC81684ADFF8E7
:10078800AC91019300230124019D9C402540AC427B
:1007980040F0B0804C6824F0100C0CF1FF36012EAC
:1007A8004FEA430E12D88768032606FA0EF627EAA0
:1007B8000607CE6806FA0EF63E4386604768C4F31D
:1007C800001627EA05079E403E4346600326C76891
:1007D80006FA0EF6F64307EA060A8F6807FA0EF7D6
:1007E80047EA0A07BCF1020FC76016D14FEAD30ADD
:1007F80000EB8A0A03F0070BDAF820704FEA8B0B3C
:100808004FF00F0C0CFA0BFC27EA0C0C0F6907FAD7
:100818000BF747EA0C07CAF8207007683E4004F057
:10082800030707FA0EFE4EEA06060660E60061D5E3
:100838004FF0000BCDF80CB0D8F84470394E47F49F
:100848008047C8F84470D8F8447007F48047039785
:10085800039F23F0030707F1804707F59C3703F050
:10086800030CD7F808A04FEA8C0C4FF00F0E0EFAC5
:100878000CFEB0422AEA0E0E43D006F58066B0425E
:1008880041D006F58066B0423FD006F58066B0429A
:100898003DD006F58066B0423BD048453BD006F5D2
:1008A8000066B04239D006F58066B04214BF08260B
:1008B800072606FA0CF646EA0E06BE601668EF43EF
:1008C80014F4803F0CBF3E402E431660566814F463
:1008D800003F0CBF3E402E435660966814F4801FBC
:1008E8000CBF3E402E439660D668A40254BF3E40DB
:1008F8002E43D6600133102B7FF445AF05B0BDE819
:10090800F08F5E46D5E70126D3E70226D1E7032616
:10091800CFE70426CDE70526CBE70626C9E700BFC3
:10092800003C014000000240003802400014024030
:1009380008B5FFF783FCBDE80840FFF714BF0000C7
:100948000B480C4B03604FF08043836000234376D1
:100958008376037703764377C3604FF440230122FD
:1009680003614FF48013C27642604361FFF78CBC89
:10097800300000200064004030B589B00823069399
:1009880040F21D33029300230493059302460DF1B0
:10099800070302A90C480C4CFFF7A5FD9DF80710AA
:1009A8002046FFF7EDFD05460028F7D1074C40F635
:1009B800B830FFF755FC012340F6B8302360FFF745
:1009C8004FFC256009B030BD300000202800002011
:1009D80000B58BB0002301226946074800930193B4
:1009E8000593049302930393079206930892FFF7E3
:1009F800C7FC0BB05DF804FB3000002000B58BB0DD
:100A080000211748FFF742FE0028F9D001AB03AADE
:100A180000211348FFF7C4FD124B9DF804201A70FB
:100A2800114B9DF805201A70104B9DF806201A707E
:100A38000F4B9DF807201A700E4B9DF808201A706E
:100A48000D4B9DF809201A700C4B9DF80A201A705E
:100A58009DF80B200A4B1A700BB05DF804FB00BF21
:100A6800300000205F0000205C0000205B000020B8
:100A78005A00002059000020580000205D00002086
:100A88005E00002008B5FFF7BFFBFFF759FF0648D7
:100A9800064CFFF7FDFCFFF79BFF2046FFF76CFFB6
:100AA800FFF7ACFFF9E700BF30000020240C000876
:100AB80008B50320FFF7FAFD0C4A536A43F4E02314
:100AC8005362002211466FF00B00FFF701FE00226F
:100AD80011466FF00A00FFF7FBFD002211466FF088
:100AE8000900BDE80840FFF7F3BD00BF00ED00E0D6
:100AF80000B589B0134B144800220192196C41F0DB
:100B080000711964196C01F0007101910199029248
:100B1800196B41F0020119631B6B059203F0020384
:100B28000293029B4FF4407303930223049303231D
:100B3800069303A909230793FFF71AFE09B05DF886
:100B480004FB00BF0038024000040240054BD3F804
:100B5800882042F47002C3F888204FF000629A603F
:100B6800704700BF00ED00E0DFF834D0002103E05B
:100B78000C4B5B58435004310B480C4B42189A42BB
:100B8800F6D30B4A02E0002342F8043B094B9A4291
:100B9800F9D3FFF7DBFF00F011F8FFF773FF704799
:100BA80000000220380C0008000000200C00002083
:100BB8000C00002060000020FEE7000070B50D4E1C
:100BC8000D4CA41BA4100025A54209D10B4E0C4CBA
:100BD80000F018F8A41BA4100025A54205D170BD8B
:100BE80056F8253098470135EEE756F825309847EE
:100BF8000135F2E7300C0008300C0008300C000812
:100C0800340C0008F8B500BFF8BC08BC9E46704715
:0C0C1800F8B500BFF8BC08BC9E46704751
:0C0C24006D7568616D6D65740000000066
:040C3000AD0100080A
:040C3400890100082A
:0C0C380001000000100000000024F40087
:0400000508000B7173
:00000001FF
