:020000040800F2
:1000000000000220F90A0008490B0008490B00080B
:10001000490B0008490B0008490B000800000000CC
:10002000000000000000000000000000490B000874
:10003000490B000800000000490B0008A509000852
:10004000490B0008490B0008490B0008490B000840
:10005000490B0008490B0008490B0008490B000830
:10006000490B0008490B0008490B0008490B000820
:10007000490B0008490B0008490B0008490B000810
:10008000490B0008490B0008B5090008490B000896
:10009000490B0008490B0008490B0008490B0008F0
:1000A000490B0008490B0008490B0008490B0008E0
:1000B000490B0008490B0008490B0008490B0008D0
:1000C000490B0008490B0008490B0008490B0008C0
:1000D000490B0008490B0008490B0008490B0008B0
:1000E000490B0008490B0008490B0008490B0008A0
:1000F000490B0008490B0008490B0008490B000890
:10010000490B0008490B0008490B0008490B00087F
:10011000490B0008490B0008490B0008490B00086F
:10012000490B0008490B0008490B0008490B00085F
:10013000490B0008490B0008490B0008490B00084F
:10014000490B0008490B0008490B0008490B00083F
:10015000490B0008490B0008490B0008490B00082F
:10016000490B0008490B0008490B0008490B00081F
:10017000490B0008490B0008490B0008000000006B
:08018000490B0008490B0008BF
:1001880010B5054C237833B9044B13B10448AFF3C9
:1001980000800123237010BD0C0000200000000027
:1001A800940B000808B5034B1BB103490348AFF390
:1001B800008008BD0000000010000020940B00081B
:1001C80038B50E4A0E4B054618784FF47A73B3FBD0
:1001D800F0F31068B0FBF3F000F0E4FA044658B905
:1001E8000F2D09D8024629464FF0FF3000F098FA43
:1001F800044B20461D6038BD012038BD0800002092
:10020800000000200400002008B50B4B1A6842F4D7
:1002180000721A601A6842F480621A601A6842F41E
:1002280080721A60032000F069FA0020FFF7C8FF07
:1002380000F000FC002008BD003C0240034A044BCB
:1002480011681B780B441360704700BF280000201A
:100258000000002038B50446002800F09B80056C9B
:1002680025B900F007FC656484F83C50236CDB0674
:1002780000F18E80236C23F4885323F0020343F0AB
:1002880002032364444B5A6822F440325A605A6885
:1002980061680A435A60236821695A6822F48072A7
:1002A8005A605A6842EA01225A605A68A16822F0E4
:1002B80040725A605A680A435A609A68E16822F4A0
:1002C80000629A609A680A439A603449A26A8A422C
:1002D80052D0996821F07061996099680A439A60D0
:1002E8009A68E16A22F040529A609A680A439A60D2
:1002F8009A68217E22F002029A609A6842EA4102D4
:100308009A6094F82020002A3ED05A68616A42F424
:1003180000625A605A6822F460425A605A68013989
:1003280042EA41325A60DA6AE16922F47002DA621A
:10033800DA6A013942EA0152DA629A6894F83010AE
:1003480022F400729A609A6842EA41229A609A6896
:10035800616922F480629A609A68002042EA8122E8
:100368009A606064236C23F0030343F00103236461
:10037800002384F83C3038BD9A6822F070629A6095
:100388009A6822F04052B2E75A6822F40062C9E73C
:100398000120EDE7012038BD002301400100000FD6
:1003A80082B00023019390F83C30012B67D00123E1
:1003B80080F83C3003689A68D10705D59A68D20757
:1003C80014D4002002B070479A682E4942F0010206
:1003D8009A602D4A1268B2FBF1F202EB42020192D6
:1003E800019A002AEAD0019A013AF8E7026C22F44D
:1003F800E06222F0010242F4807202645A685105F8
:1004080041BF026C22F4405242F480520264026CF2
:1004180012F480521CBF426C22F006024264002291
:1004280080F83C206FF022021A605A6842F080621D
:1004380042F020025A60154A516811F01F0F144902
:100448001AD18B4206D001F580718B420BD15268CC
:10045800D206B6D1986810F04050B2D19A6842F0EE
:1004680080429A60AEE70B498B42AAD1526802F0EB
:100478001F020F2AEED9A4E78B42A2D1EAE7022095
:10048800A0E700BF40420F00080000200023014001
:1004980000200140002201400368D86C7047704773
:1004A800704738B5036819685A688D0704462BD514
:1004B800900629D5226CD1065EBF226C42F40072E8
:1004C80022649A6812F0405F17D1227EAAB9DA6ACC
:1004D80012F4700F02D09A6852050ED45A6822F0AE
:1004E80020025A60236C23F480732364236CDB049A
:1004F8005EBF236C43F001032364204600F08AFAB0
:1005080023686FF012021A60236819685A684D0749
:1005180032D5100630D5226CD1065EBF226C42F46B
:10052800005222649A6812F4401F1ED19A6B12F48A
:10053800401F02D09A68520517D45A68550514D43A
:100548009A6812F0405F10D1227E72B95A6822F080
:1005580080025A60236C23F480532364236CD805EB
:100568005EBF236C43F001032364204600F0C4F807
:1005780023686FF00C021A60236819685A68C90763
:100588000FD555060DD51B68D8070AD5236C43F43B
:10059800803323642046FFF782FF23686FF001024F
:1005A8001A60236819685A6889060DD552010BD557
:1005B800626C6FF0200542F00202626420461D6002
:1005C800FFF76EFF23681D6038BD0000F7B50023F4
:1005D800019390F83C30012B00F083800D6804688B
:1005E8008A680123092D80F83C30AEB22AD906EB7F
:1005F8004603E7681E3B4FF0070E0EFA03FE27EA94
:100608000E07E760E76802FA03F33B43E3604A68D2
:10061800062A4FEA820325D81344676B591F1F2304
:100628008B4027EA03036363626B06FA01F1114307
:1006380061632D4B9C4234D0002380F83C3018462F
:1006480003B0F0BD276905EB45034FF0070E0EFA1E
:1006580003FE27EA0E072761276902FA03F33B43E3
:100668002361D4E70C2A0ED81344216BA3F123028B
:100678001F23934021EA03032363236B06FA02F244
:100688001A432263D5E71344E16A413B1F229A408B
:1006980021EA0202E262E26A06FA03F11143E16228
:1006A800C7E7122D04D1114A536843F480035360FD
:1006B800A5F11003012BBFD80C4A5368102D43F441
:1006C80000035360B8D10A4B0A4A1B68B3FBF2F225
:1006D8000A2353430193019B002BADD0019B013B9F
:1006E800F8E70220ACE700BF0020014000230140EA
:1006F8000800002040420F0070470000074AD368F6
:1007080023F4E0631B041B0C43F0BF63000243F4B3
:10071800003300F4E0600343D360704700ED00E06D
:10072800174B30B5DC68C4F30224C4F10703251D58
:10073800042B28BF0423062D4FF0010505FA03F307
:1007480003F1FF338CBF033C00241940A14005FA94
:1007580004F4013C2240002842EA01024FEA021256
:10076800ADBF00F1604000F00F00064B00F561409E
:10077800B5BFD2B2D2B21A5480F8002330BD00BF40
:1007880000ED00E014ED00E0002808DB4209012339
:1007980000F01F0003FA00F0014B43F822007047F5
:1007A80000E100E00138B0F1807F0AD2064B074A29
:1007B8005860F02182F823100020072298601A6000
:1007C80070470120704700BF10E000E000ED00E036
:1007D800704708B5FFF7FCFF08BD00002DE9F04F92
:1007E80085B00B68DFF8AC81684ADFF8AC910193FB
:1007F80000230124019D9C402540AC4240F0B0807C
:100808004C6824F0100C0CF1FF36012E4FEA430E11
:1008180012D88768032606FA0EF627EA0607CE6876
:1008280006FA0EF63E4386604768C4F3001627EAC8
:1008380005079E403E4346600326C76806FA0EF643
:10084800F64307EA060A8F6807FA0EF747EA0A0727
:10085800BCF1020FC76016D14FEAD30A00EB8A0A2F
:1008680003F0070BDAF820704FEA8B0B4FF00F0CF0
:100878000CFA0BFC27EA0C0C0F6907FA0BF747EA8E
:100888000C07CAF8207007683E4004F0030707FA0F
:100898000EFE4EEA06060660E60061D54FF0000B34
:1008A800CDF80CB0D8F84470394E47F48047C8F8F2
:1008B8004470D8F8447007F480470397039F23F0E7
:1008C800030707F1804707F59C3703F0030CD7F8B7
:1008D80008A04FEA8C0C4FF00F0E0EFA0CFEB04237
:1008E8002AEA0E0E43D006F58066B04241D006F5DE
:1008F8008066B0423FD006F58066B0423DD006F52E
:100908008066B0423BD048453BD006F50066B04211
:1009180039D006F58066B04214BF0826072606FAC5
:100928000CF646EA0E06BE601668EF4314F4803FE4
:100938000CBF3E402E431660566814F4003F0CBFAF
:100948003E402E435660966814F4801F0CBF3E400C
:100958002E439660D668A40254BF3E402E43D6600C
:100968000133102B7FF445AF05B0BDE8F08F5E462C
:10097800D5E70126D3E70226D1E70326CFE70426E9
:10098800CDE70526CBE70626C9E700BF003C0140B6
:1009980000000240003802400014024008B5FFF78A
:1009A8004DFCBDE80840FFF714BF00000148FFF701
:1009B80078BD00BF2C0000207FB50E4C0E4A4FF4C6
:1009C8008033012584E80C0000264FF00073204690
:1009D800A3602576E6606561E561FFF73BFC0323CC
:1009E80069462046009601950293FFF7EFFD04B093
:1009F80070BD00BF2C0000200020014008B5FFF7A3
:100A080003FCFFF7D9FF0248FFF7CAFCFEE700BF67
:100A18002C00002010B5054C2046FFF73DFD044B87
:100A2800188023686FF002021A6010BD2C000020A5
:100A38007400002008B50320FFF760FE0C4A536AD3
:100A480043F4E0235362002211466FF00B00FFF7D6
:100A580067FE002211466FF00A00FFF761FE0022D0
:100A680011466FF00900BDE80840FFF759BE00BF06
:100A780000ED00E010B588B0144B1548002401942F
:100A88005A6C42F480725A645A6C02F48072019271
:100A9800019A02941A6B42F001021A631B6B03F06D
:100AA80001030293012203A9029B039203230493E7
:100AB8000693FFF793FE1220FFF766FE22460F21EA
:100AC8001220FFF72DFE08B010BD00BF003802400D
:100AD80000000240054BD3F8882042F47002C3F8A6
:100AE80088204FF000629A60704700BF00ED00E078
:100AF800DFF834D0002103E00C4B5B58435004313D
:100B08000B480C4B42189A42F6D30B4A02E00023DA
:100B180042F8043B094B9A42F9D3FFF7DBFF00F098
:100B280011F8FFF76BFF704700000220B40B0008B4
:100B3800000000200C0000200C000020780000209D
:100B4800FEE7000070B50D4E0D4CA41BA410002547
:100B5800A54209D10B4E0C4C00F018F8A41BA410A8
:100B68000025A54205D170BD56F8253098470135B6
:100B7800EEE756F8253098470135F2E7AC0B000848
:100B8800AC0B0008AC0B0008B00B0008F8B500BFB0
:100B9800F8BC08BC9E467047F8B500BFF8BC08BC56
:040BA8009E467047AE
:040BAC00AD0100088F
:040BB00089010008AF
:0C0BB40001000000100000000024F4000C
:0400000508000AF9EC
:00000001FF
