:020000040800F2
:1000000000000220011700085117000851170008CE
:100010005117000851170008511700080000000090
:100020000000000000000000000000005117000860
:100030005117000800000000511700080D140008B7
:1000400051170008511700085117000851170008F0
:1000500051170008511700085117000851170008E0
:1000600051170008511700085117000851170008D0
:1000700051170008511700085117000851170008C0
:1000800051170008511700085117000851170008B0
:1000900051170008511700085117000851170008A0
:1000A0005117000851170008511700085117000890
:1000B0005117000851170008511700085117000880
:1000C0005117000851170008511700085117000870
:1000D0005117000851170008511700085117000860
:1000E000511700081D140008511700085117000887
:1000F0005117000851170008511700085117000840
:10010000511700085117000851170008511700082F
:10011000511700085117000851170008511700081F
:10012000511700085117000851170008511700080F
:1001300051170008511700085117000851170008FF
:1001400051170008511700085117000851170008EF
:1001500051170008511700085117000851170008DF
:1001600051170008511700085117000851170008CF
:10017000511700085117000851170008000000002F
:08018000511700085117000897
:1001880010B5054C237833B9044B13B10448AFF3C9
:1001980000800123237010BD0C0000200000000027
:1001A800AC17000808B5034B1BB103490348AFF36C
:1001B800008008BD0000000010000020AC170008F7
:1001C80053B94AB9002908BF00281CBF4FF0FF31B6
:1001D8004FF0FF3000F07AB9ADF1080C6DE904CEAC
:1001E80000F006F8DDF804E0DDE9022304B070470A
:1001F8002DE9F0478C460D460446089E002B51D148
:100208008A4217466DD9B2FA82FEBEF1000F0BD0B2
:10021800CEF1200C01FA0EF520FA0CFC02FA0EF7CA
:100228004CEA050C00FA0EF44FEA174A250CBCFB01
:10023800FAF81FFA87F90AFB18CC45EA0C4508FBBF
:1002480009F3AB420AD9ED1908F1FF3280F0238196
:10025800AB4240F22081A8F102083D44ED1AA4B255
:10026800B5FBFAF00AFB105544EA054400FB09F90E
:10027800A14509D9E41900F1FF3380F00A81A145AD
:1002880040F2078102383C44A4EB090440EA0840E4
:100298000021002E61D024FA0EF40023346073602C
:1002A800BDE8F0878B4207D9002E54D0002186E89C
:1002B80021000846BDE8F087B3FA83F1002940F031
:1002C8008E80AB4202D3824200F2FA80841A65EB38
:1002D80003050120AC46002E3FD086E81010BDE88B
:1002E800F08712B90127B7FBF2F7B7FA87FEBEF11C
:1002F800000F34D1EB1B3A0C1FFA87FC0121B3FB2A
:10030800F2F8250C02FB183345EA03450CFB08F309
:10031800AB4207D9ED1908F1FF3002D2AB4200F227
:10032800D1808046ED1AA3B2B5FBF2F002FB10555E
:1003380043EA05440CFB00FCA44507D9E41900F185
:10034800FF3302D2A44500F2B8801846A4EB0C048F
:1003580040EA08409DE731463046BDE8F087CEF1D7
:10036800200405FA0EF307FA0EF720FA04F83A0CFF
:1003780025FA04F448EA0308B4FBF2F14FEA1845F9
:1003880002FB11441FFA87FC45EA044501FB0CF304
:10039800AB4200FA0EF409D9ED1901F1FF3080F0F3
:1003A8008A80AB4240F2878002393D44EB1A1FFA3B
:1003B80088F5B3FBF2F002FB103345EA034500FB76
:1003C8000CF3AB4207D9ED1900F1FF386FD2AB42FD
:1003D8006DD902383D44EB1A40EA01418FE7C1F17B
:1003E800200722FA07F88B4005FA01F448EA0303CC
:1003F80020FA07FE4FEA134CFD404EEA040EB5FB07
:10040800FCF94FEA1E440CFB19551FFA83F844EA1D
:10041800054509FB08F4AC4202FA01F200FA01FAB8
:1004280008D9ED1809F1FF3043D2AC4241D9A9F1FE
:1004380002091D442D1B1FFA8EFEB5FBFCF00CFBB8
:1004480010554EEA054400FB08F8A04507D9E41802
:1004580000F1FF3529D2A04527D902381C4440EACB
:100468000940A4EB0804A0FB02894C45C6464D464A
:1004780015D312D056B1BAEB0E0364EB050404FA97
:1004880007F7CB401F43CC40376074600021BDE8BC
:10049800F0871846F8E69046E0E6C245EAD2B8EB9F
:1004A800020E69EB03050138E4E72846D7E7404622
:1004B80091E78146BEE7014678E702383C4445E7C4
:1004C800084608E7A8F102083D442BE7704700BF3B
:1004D80038B50E4A0E4B054618784FF47A73B3FBBD
:1004E800F0F31068B0FBF3F000F0AAF8044658B92E
:1004F8000F2D09D8024629464FF0FF3000F05EF86C
:10050800044B20461D6038BD012038BD080000207E
:10051800000000200400002008B50B4B1A6842F4C4
:1005280000721A601A6842F480621A601A6842F40B
:1005380080721A60032000F02FF80020FFF7C8FF30
:1005480001F084F8002008BD003C0240034A044B37
:1005580011681B780B441360704700BF2800002007
:1005680000000020014B1868704700BF28000020D9
:1005780038B50446FFF7F6FF631C1CBF054B1B7814
:10058800054618BFE418FFF7EDFF401B8442FAD870
:1005980038BD00BF00000020074AD36823F4E06399
:1005A8001B041B0C43F0BF63000243F4003300F448
:1005B800E0600343D360704700ED00E0174B30B5AF
:1005C800DC68C4F30224C4F10703251D042B28BFEB
:1005D8000423062D4FF0010505FA03F303F1FF3359
:1005E8008CBF033C00241940A14005FA04F4013CE7
:1005F8002240002842EA01024FEA0212ADBF00F190
:10060800604000F00F00064B00F56140B5BFD2B264
:10061800D2B21A5480F8002330BD00BF00ED00E0CC
:1006280014ED00E0002808DB4209012300F01F0058
:1006380003FA00F0014B43F82200704700E100E0A4
:100648000138B0F1807F0AD2064B074A5860F02182
:1006580082F823100020072298601A607047012052
:10066800704700BF10E000E000ED00E0704708B5FB
:10067800FFF7FCFF08BD00002DE9F04F85B00B68BF
:10068800DFF8AC81684ADFF8AC91019300230124BC
:10069800019D9C402540AC4240F0B0804C6824F05D
:1006A800100C0CF1FF36012E4FEA430E12D8876862
:1006B800032606FA0EF627EA0607CE6806FA0EF6AD
:1006C8003E4386604768C4F3001627EA05079E4044
:1006D8003E4346600326C76806FA0EF6F64307EA65
:1006E800060A8F6807FA0EF747EA0A07BCF1020FF5
:1006F800C76016D14FEAD30A00EB8A0A03F0070B4A
:10070800DAF820704FEA8B0B4FF00F0C0CFA0BFC49
:1007180027EA0C0C0F6907FA0BF747EA0C07CAF827
:10072800207007683E4004F0030707FA0EFE4EEA01
:1007380006060660E60061D54FF0000BCDF80CB058
:10074800D8F84470394E47F48047C8F84470D8F850
:10075800447007F480470397039F23F0030707F1CA
:10076800804707F59C3703F0030CD7F808A04FEA39
:100778008C0C4FF00F0E0EFA0CFEB0422AEA0E0E49
:1007880043D006F58066B04241D006F58066B04297
:100798003FD006F58066B0423DD006F58066B0428F
:1007A8003BD048453BD006F50066B04239D006F547
:1007B8008066B04214BF0826072606FA0CF646EAF9
:1007C8000E06BE601668EF4314F4803F0CBF3E402F
:1007D8002E431660566814F4003F0CBF3E402E436B
:1007E8005660966814F4801F0CBF3E402E439660F6
:1007F800D668A40254BF3E402E43D6600133102B66
:100808007FF445AF05B0BDE8F08F5E46D5E7012619
:10081800D3E70226D1E70326CFE70426CDE705264E
:10082800CBE70626C9E700BF003C014000000240B4
:100838000038024000140240436931EA030308BF4C
:1008480009048161704700002DE9F341044608B9A5
:1008580001203FE00368DD0710D4236898075AD4C5
:1008680023681A0700F19C8023685B0700F1BA80AF
:10087800A069002840F01B8100202BE0A44B9A6857
:1008880002F00C02042A07D09A6802F00C02082A27
:100898000AD15B68590207D59D4B1B689A03DCD5C2
:1008A8006368002BD9D1D3E76368994DB3F5803FCE
:1008B80013D12B6843F480332B60FFF753FE944D1C
:1008C80006462B689B03C8D4FFF74CFE801B6428A0
:1008D800F7D9032002B0BDE8F081B3F5A02F04D109
:1008E8002B6843F480232B60E3E72A6822F48032E4
:1008F8002A602A6822F480222A60002BDDD1FFF7C3
:1009080031FE06462B689F03A7D5FFF72BFE801BF9
:100918006428F7D9DDE77E4B9A6812F00C0F07D0F0
:100928009A6802F00C02082A11D15B685E020ED4A4
:10093800774B1A68950702D5E268012A88D11A68A8
:10094800216922F0F80242EAC1021A6088E7E268E7
:10095800704BB2B101221A60FFF704FE6C4D0646D7
:100968002B68980707D52B68226923F0F80343EA18
:10097800C2032B6074E7FFF7F5FD801B0228EFD94F
:10098800A7E71A60FFF7EEFD614D06462B68990749
:100998007FF566AFFFF7E6FD801B0228F6D998E7DA
:1009A80062695D4B7AB101221A60FFF7DBFD584D91
:1009B80006466B6F9F073FF557AFFFF7D3FD801BC8
:1009C8000228F6D985E71A60FFF7CCFD504D064698
:1009D8006B6F98077FF548AFFFF7C4FD801B0228AF
:1009E800F6D976E74A4B1A6C12F0805228D1019258
:1009F8001A6C42F080521A641B6C03F08053019306
:100A0800019B0126454D2B68D9051BD5A368404D90
:100A1800012B27D12B6F43F001032B67FFF7A2FDB2
:100A28003B4D074641F288382B6F9B0739D5002E7E
:100A38003FF41EAF364A136C23F08053136417E754
:100A48000026DFE72B6843F480732B60FFF78AFDED
:100A580007462B68DA05D9D4FFF784FDC01B0228A6
:100A6800F7D936E7052B04D12B6F43F004032B6726
:100A7800D0E72A6F22F001022A672A6F22F00402C7
:100A88002A67002BCAD1FFF76DFD41F28838074667
:100A98002B6F9807CBD5FFF765FDC01B4045F7D9ED
:100AA80017E7FFF75FFDC01B4045BDD911E7184D9B
:100AB800AB6803F00C03082B47D0194E002302281B
:100AC800336035D1FFF74EFD07462B68990129D4CD
:100AD800226AE3691343626A43EA8213E26A43EAD9
:100AE8000263A26A0A4C5208013A43EA02436B6065
:100AF80001233360FFF736FD054623689A013FF569
:100B0800BBAEFFF72FFD401B0228F6D9E1E600BF78
:100B18000038024000004742800E47420070004003
:100B280060004742FFF71EFDC01B0228CDD9D0E662
:100B3800FFF718FD04462B689B017FF59DAEFFF774
:100B480011FD001B0228F6D9C3E601283FF4C2AE06
:100B5800A868E36900F480029A427FF479AE226AB9
:100B680000F03F0393427FF473AE626A47F6C073A6
:100B7800034093427FF46CAEA26A00F44033934280
:100B88007FF466AEE36A00F07060C01A18BF0120F7
:100B9800A0E600BF134908B58B6803F00C03042BCB
:100BA80003D0082B03D0104808BD104808BD4A6878
:100BB8004B68496813F4800314BF0C480A48C1F312
:100BC800881118BF002302F03F02A1FB0001FFF7C4
:100BD800F7FA044B5B68C3F3014301335B00B0FBD6
:100BE800F3F008BD003802400024F40040787D018D
:100BF8002DE9F0410D46044610B90120BDE8F08109
:100C0800444B1A6802F00F028A4229D321688F07E1
:100C18002ED4C80741D43F4B1A6802F00F02954200
:100C280067D3226851076DD4130707D53A4A21695B
:100C3800936823F4604343EAC1039360FFF7AAFF74
:100C4800354B364A9B68C3F30313D35CD840344B07
:100C58001860344B1868FFF73BFC0020BDE8F081B2
:100C6800CAB21A701B6803F00F039942C5D1CDE7C9
:100C7800294B11F0040F1EBF9A6842F4E0529A60A3
:100C88000E0742BF9A6842F460429A609A68A06868
:100C980022F0F00202439A60BBE762681E4B012A09
:100CA8001DD11B6813F4003FA7D01B4EB36823F077
:100CB80003031343B360FFF755FC41F28838074636
:100CC800B368626803F00C03B3EB820FA3D0FFF79D
:100CD80049FCC01B4045F3D90320BDE8F081911EB3
:100CE80001291B6802D813F0007FDDE713F0020F1B
:100CF800DAE7EAB21A701B6803F00F039D427FF42B
:100D08007CAF8EE70449E0688B6823F4E053034323
:100D18008B6089E7003C024000380240C417000895
:100D28000800002004000020036813F0050FF7B541
:100D3800054605D1286810F0020028D103B0F0BD9F
:100D4800414C424E00232360FFF70CFC07463368F2
:100D58001B0115D4AB686A681B0743EA8213C6F8FF
:100D6800843001232360FFF7FDFB384C06462368D7
:100D78001801DFD4FFF7F6FB801B0228F7D904E03F
:100D8800FFF7F0FBC01B0228E1D90320D6E70023B8
:100D980001932E4B2E4C1A6C42F080521A641B6C35
:100DA80003F080530193019B236843F4807323600D
:100DB800FFF7D8FB06462368D9051BD5234C236FBC
:100DC80013F440731CD1EB6803F44072B2F5407F12
:100DD8001E4A34D1916823F0704021F4F81120F4B0
:100DE800407001439160116FC3F30B030B4313670A
:100DF8000020A3E7FFF7B6FB801B0228DBD9C4E776
:100E0800EA6802F440729342DDD0236F114A01214F
:100E1800116023F44073002111602367236FDA0700
:100E2800D1D5FFF79FFB41F288370646236F9B0712
:100E3800C9D4FFF797FB801BB842F7D9A5E791689B
:100E480021F4F811CEE700BF68004742003802409D
:100E580000700040400E4742037F012B70B50446E6
:100E68004FF0020045D00123237723686077CA2218
:100E78005A6253225A62B1F5807F9A6823D122F4CC
:100E880080729A609A6822F480529A60FFF76AFB2F
:100E980006462368DD6815F0010507D02368FF22A0
:100EA8005A62002001236377207770BDFFF75AFB51
:100EB800801BB0F57A7FECD92368FF2203205A62A1
:100EC8006077257770BD22F400729A609A6822F4E0
:100ED80000529A60FFF746FB06462368DD6815F066
:100EE8000205DBD1FFF73EFB801BB0F57A7FF4D912
:100EF800E2E770BD03689A68D20410B504460AD5C3
:100F0800DB68D90507D500F099FB2268D368DBB206
:100F180063F4C073D36023689A6892040BD5DB68C6
:100F28009B0508D5204600F06CFA2268D368DBB22E
:100F380063F42073D360034B4FF400325A610123EA
:100F4800637710BD003C0140026838B5D36823F0D0
:100F5800A003D3600446FFF705FB05462368DB685A
:100F68009B0601D5002038BDFFF7FCFA401BB0F501
:100F78007A7FF3D9032038BD38B50368DA6852069A
:100F8800044601D5002038BD4FF0FF32DA60FFF784
:100F9800E9FA05462368DB685B06F3D4FFF7E2FA53
:100FA800401BB0F57A7FF5D9032038BD38B5044623
:100FB800B8B1437F03F0FF0213B9027700F07EFB5C
:100FC800022363772368CA225A6253225A62204650
:100FD800FFF7D2FF2368054628B1FF225A6204238F
:100FE800637701252EE09A68206922F4E00222F056
:100FF80040029A60626899680243606902430A4342
:101008009A60E2681A611A69A16842EA01421A61A3
:10101800DA6822F08002DA609B689B0605D42046D5
:10102800FFF792FF08B12368D7E72368A1691A6C14
:1010380022F480221A641A6C0A431A64FF225A6244
:1010480001236377284638BD0023092803D840EADE
:101058000310C0B270470A380133C0B2F5E7F8B5DB
:10106800037F012B06460F464FF002052FD00123C0
:1010780003770368457708784D788C789B6842BB7E
:1010880013F0400308BFCB70FFF7DEFF0146284688
:10109800FFF7DAFF02462046FFF7D6FFFB7840EA63
:1010A800034040EA014040EA02243368CA225A62F7
:1010B80053225A623046FFF75FFF33680546A8B1EE
:1010C800FF225A62042373770023337701252846C9
:1010D800F8BD13F040034FEA052508BFCB7045EA79
:1010E80000402043CC7840EA0444DEE704F07F3433
:1010F80024F0FE441C609A68386922F480229A60C1
:10110800FA68996802430A439A60DA6822F0800212
:10111800DA609B689B060AD43046FFF715FF30B1AA
:101128003368FF225A62042373773577CEE7336832
:10113800FF225A620123737700233377C7E7F8B594
:10114800037F012B05464FF0020630D001230377B9
:1011580046774B78C8788E780C78002A48D1DA061A
:1011680003D523F010030A334B70FFF76DFF0746D2
:101178004878FFF769FF02463046FFF765FF40EA07
:10118800443040EA074040EA02242B68CA225A62E7
:1011980053225A622846FFF7EFFE2B68064640B1F5
:1011A800FF225A6204236B7700232B7701263046EF
:1011B800F8BD24F07F4424F0C0045C60DA6822F0B3
:1011C8008002DA609B689B060AD42846FFF7BCFEBB
:1011D80030B12B68FF225A6204236B772E77E5E73C
:1011E8002B68FF225A6201236B7700232B77DEE7F7
:1011F8001B0243EA0040304340EA4434C5E700009C
:101208002DE9F347544B05461B684FF4FA40B3FBEE
:10121800F0F04FF47A73434301932B7F012B4FF087
:1012280002004BD001232B7768772B6808784F781A
:1012380091F8028091F82060CC69D1F814A0002AB6
:101248003FD19B6813F0400308BFCB70FFF7FCFE4B
:1012580081463846FFF7F8FE02464046FFF7F4FE9F
:1012680007463046FFF7F0FECB7844EA0A0444EA22
:1012780003433B4343EA094343EA022343EA00604A
:101288008B694C681C432B68CA225A6253225A62E3
:101298004A6AB2F5807F9A6843D122F480729A60D4
:1012A800DA68D2B262F4C072DA60019A511E019112
:1012B800D2B9FF210320596268772A7702B0BDE8C6
:1012C800F0879A6844EA0A0412F0400208BFCA701C
:1012D80044EA080444EA0040CB7840EA072040EAA0
:1012E800034040EA0660CBE7DA68D107DDD5D8616C
:1012F8005C649A6842F480729A609A6842F48052F8
:101308009A60164A116841F400311160916841F4FD
:1013180000319160FF225A62002001236B77287701
:10132800CCE722F400729A60DA68D2B262F42072D2
:10133800DA60019A511E0191002ABAD0DA68920740
:10134800F7D518629C649A6842F400729A609A68A9
:1013580042F40052D4E700BF08000020003C0140DE
:10136800030903EB830300F00F0000EB4300C0B256
:1013780070470368986A486070B518691D6805F079
:101388007F3323F0FE43C0F30E001E0C8860C3F3C6
:10139800062406F03F0005F07F0506F040060870B9
:1013A8004C708D70CE7052B9FFF7DAFF0870204686
:1013B800FFF7D6FF48702846FFF7D2FF8870002055
:1013C80070BD38B503685C6824F07F4323F0C00320
:1013D800180CC3F3042504F03F04C3F34233C87068
:1013E8004D708C700B7052B9FFF7BAFFC870284661
:1013F800FFF7B6FF48702046FFF7B2FF887000205D
:1014080038BD704708B5FFF7A1F8BDE80840FFF7F9
:101418002EB900000148FFF76DBD00BF3000002065
:101428007FB500210D4B00911A6B0D4842F0080260
:101438001A631B6B039103F008030093009B0123BD
:10144800029306A9032304934FF4704341F8143D13
:10145800FFF712F907B05DF804FB00BF003802403F
:10146800000C024030B5302299B00DEB020000218B
:1014780000F090F910251422002107A800F08AF93D
:101488002A46002103A800F085F90024194B01948D
:101498001A6C42F080521A641B6C03F0805301935B
:1014A800019B154B02941A6842F480421A601B682B
:1014B800109503F480430293029B12940A230C9321
:1014C8000CA801230F931193FFF7BEF90F232146B0
:1014D80007A80793089409940A940B94FFF788FBCC
:1014E8000223039303A84FF400730693FFF71CFC31
:1014F80019B030BD00380240007000400648074B64
:1015080003607F2200238260FF224360C260036180
:1015180043618361FFF74ABD300000200028004086
:1015280030B5124C87B01422002101A800F032F91E
:101538000C252D2301A9002220468DF805308DF8B1
:101548000450FFF78CFD06238DF8013006A91223FD
:101558008DF80330022301F8183D002220468DF84B
:101568000250FFF7ECFD07B030BD00BF300000208F
:1015780010B5104C8AB028220021684600F00AF9FC
:101588004FF480712046FFF767FC4FF4807309938E
:101598002D238DF8013009238DF80230064B059371
:1015A80000224FF07063694620460693FFF728FE35
:1015B8000AB010BD30000020008080807FB5FEF7A3
:1015C800ABFFFFF74FFFFFF72BFFFFF797FFFFF783
:1015D800A7FFFFF7CDFF4FF470411348134C144D8C
:1015E800FFF72AF91422002101A800F0D3F80023FC
:1015F80000934FF47A70FEF7BBFF002201A9204642
:10160800FFF7B7FE002269462046FFF7DAFE9DF88D
:1016180004302B70074B9DF805201A70064B9DF877
:1016280006201A70E5E700BF000C024030000020D9
:101638002C00002050000020510000204FF4704181
:101648000148FFF7F9B800BF000C024013B50320AA
:10165800FEF7A2FF174A536A43F4E02353620024BB
:10166800154B00945A6C42F480425A645A6C02F446
:1016780080420092009A01941A6C42F080521A64D7
:101688001B6C03F080530193224621466FF00B0038
:10169800019BFEF793FF224621466FF00A00FEF7F2
:1016A8008DFF224621466FF00900FEF787FF02B042
:1016B80010BD00BF00ED00E00038024008B5064B41
:1016C80001221A60292000220F21FEF777FF292026
:1016D800BDE80840FEF7A6BF3C0E4742054BD3F8CD
:1016E800882042F47002C3F888204FF000629A60A4
:1016F800704700BF00ED00E0DFF834D0002103E0C0
:101708000C4B5B58435004310B480C4B42189A421F
:10171800F6D30B4A02E0002342F8043B094B9A42F5
:10172800F9D3FFF7DBFF00F011F8FFF747FF704729
:1017380000000220E4170008000000200C00002030
:101748000C00002054000020FEE7000070B50D4E8C
:101758000D4CA41BA4100025A54209D10B4E0C4C1E
:1017680000F020F8A41BA4100025A54205D170BDE7
:1017780056F8253098470135EEE756F82530984752
:101788000135F2E7DC170008DC170008DC17000851
:10179800E017000802440346934200D1704703F85B
:1017A800011BF9E7F8B500BFF8BC08BC9E467047B6
:0C17B800F8B500BFF8BC08BC9E467047A6
:1017C40000000000000000000102030406070809ED
:0817D40024EAFF7F0100000080
:0417DC00AD01000853
:0417E0008901000873
:0C17E40001000000100000000024F400D0
:0400000508001701D7
:00000001FF
