:020000040800F2
:1000000000000220E5070008350800083508000850
:100010003508000835080008350800080000000011
:10002000000000000000000000000000350800088B
:1000300035080008000000003508000881060008A7
:10004000350800083508000835080008350800089C
:10005000350800083508000835080008350800088C
:10006000350800083508000835080008350800087C
:10007000350800083508000835080008350800086C
:10008000350800083508000835080008350800085C
:10009000350800083508000835080008350800084C
:1000A000350800083508000835080008350800083C
:1000B0003508000835080008610600083508000802
:1000C000350800083508000835080008350800081C
:1000D000350800083508000835080008350800080C
:1000E00035080008350800083508000835080008FC
:1000F00035080008350800083508000835080008EC
:1001000035080008350800083508000835080008DB
:1001100035080008350800083508000835080008CB
:1001200035080008350800083508000835080008BB
:1001300035080008350800083508000835080008AB
:10014000350800083508000835080008350800089B
:10015000350800083508000835080008350800088B
:10016000350800083508000835080008350800087B
:1001700035080008350800083508000800000000B0
:080180003508000835080008ED
:1001880010B5054C237833B9044B13B10448AFF3C9
:1001980000800123237010BD0C0000200000000027
:1001A8008008000808B5034B1BB103490348AFF3A7
:1001B800008008BD00000000100000208008000832
:1001C80038B50E4A0E4B054618784FF47A73B3FBD0
:1001D800F0F31068B0FBF3F000F0AAF8044658B941
:1001E8000F2D09D8024629464FF0FF3000F05EF87F
:1001F800044B20461D6038BD012038BD0800002092
:10020800000000200400002008B50B4B1A6842F4D7
:1002180000721A601A6842F480621A601A6842F41E
:1002280080721A60032000F02FF80020FFF7C8FF43
:1002380000F072FA002008BD003C0240034A044B5B
:1002480011681B780B441360704700BF280000201A
:1002580000000020014B1868704700BF28000020EC
:1002680038B50446FFF7F6FF631C1CBF054B1B7827
:10027800054618BFE418FFF7EDFF401B8442FAD883
:1002880038BD00BF00000020074AD36823F4E063AC
:100298001B041B0C43F0BF63000243F4003300F45B
:1002A800E0600343D360704700ED00E0174B30B5C2
:1002B800DC68C4F30224C4F10703251D042B28BFFE
:1002C8000423062D4FF0010505FA03F303F1FF336C
:1002D8008CBF033C00241940A14005FA04F4013CFA
:1002E8002240002842EA01024FEA0212ADBF00F1A3
:1002F800604000F00F00064B00F56140B5BFD2B278
:10030800D2B21A5480F8002330BD00BF00ED00E0DF
:1003180014ED00E0002808DB4209012300F01F006B
:1003280003FA00F0014B43F82200704700E100E0B7
:100338000138B0F1807F0AD2064B074A5860F02195
:1003480082F823100020072298601A607047012065
:10035800704700BF10E000E000ED00E0704708B50E
:10036800FFF7FCFF08BD00002DE9F04F85B00B68D2
:10037800DFF8AC81684ADFF8AC91019300230124CF
:10038800019D9C402540AC4240F0B0804C6824F070
:10039800100C0CF1FF36012E4FEA430E12D8876875
:1003A800032606FA0EF627EA0607CE6806FA0EF6C0
:1003B8003E4386604768C4F3001627EA05079E4057
:1003C8003E4346600326C76806FA0EF6F64307EA78
:1003D800060A8F6807FA0EF747EA0A07BCF1020F08
:1003E800C76016D14FEAD30A00EB8A0A03F0070B5D
:1003F800DAF820704FEA8B0B4FF00F0C0CFA0BFC5D
:1004080027EA0C0C0F6907FA0BF747EA0C07CAF83A
:10041800207007683E4004F0030707FA0EFE4EEA14
:1004280006060660E60061D54FF0000BCDF80CB06B
:10043800D8F84470394E47F48047C8F84470D8F863
:10044800447007F480470397039F23F0030707F1DD
:10045800804707F59C3703F0030CD7F808A04FEA4C
:100468008C0C4FF00F0E0EFA0CFEB0422AEA0E0E5C
:1004780043D006F58066B04241D006F58066B042AA
:100488003FD006F58066B0423DD006F58066B042A2
:100498003BD048453BD006F50066B04239D006F55A
:1004A8008066B04214BF0826072606FA0CF646EA0C
:1004B8000E06BE601668EF4314F4803F0CBF3E4042
:1004C8002E431660566814F4003F0CBF3E402E437E
:1004D8005660966814F4801F0CBF3E402E43966009
:1004E800D668A40254BF3E402E43D6600133102B79
:1004F8007FF445AF05B0BDE8F08F5E46D5E701262D
:10050800D3E70226D1E70326CFE70426CDE7052661
:10051800CBE70626C9E700BF003C014000000240C7
:100528000038024000140240436931EA030308BF5F
:100538000904816170470368DA6842F00102DA60F1
:100548009A6802F00702062A1EBF1A6842F00102E2
:100558001A60002070470000304A0368904212D0A9
:10056800B0F1804F0FD0A2F57C4290420BD002F53B
:100578008062904207D002F58062904203D002F573
:100588007842904219D14A6823F070031343234AF2
:10059800904229D0B0F1804F26D0A2F57C429042FB
:1005A80022D002F5806290421ED002F5806290420D
:1005B8001AD002F57842904216D0194A904213D0C8
:1005C80002F5806290420FD002F5806290420BD013
:1005D800A2F59832904207D002F58062904203D08B
:1005E80002F58062904203D1CA6823F44073134332
:1005F8004A6923F08003134303608B68C3620B6866
:100608008362064B984203D003F58063984201D178
:100618000B69036301234361704700BF0000014079
:100628000040014010B50446A0B190F83D3003F0F9
:10063800FF021BB980F83C2000F08EF8022384F8F2
:100648003D302068211DFFF787FF012384F83D30E6
:10065800002010BD012010BD08B54FF440510448DA
:10066800FFF762FF034B1B686FF001021A6108BDB8
:10067800000C02402C00002008B5FFF7DFFDBDE8A4
:100688000840FFF76CBE000009480A4B03600023CE
:1006980080220377836049F640438261C3604FF448
:1006A80000724FF47A7302614360FFF7BBBF00BF6B
:1006B8002C0000200008004008B5FFF7A5FDFFF753
:1006C800E3FF1248FFF737FF4FF440411048FFF7A8
:1006D8002BFF4FF49670FFF7C3FD4FF440410C48D1
:1006E800FFF722FF4FF49670FFF7BAFD4FF4404131
:1006F8000748FFF719FF4FF49670FFF7B1FD054A59
:10070800136943F002031361FEE700BF2C000020C9
:10071800000C024000ED00E008B50320FFF7B4FD2F
:100728000C4A536A43F4E0235362002211466FF0E7
:100738000B00FFF7BBFD002211466FF00A00FFF720
:10074800B5FD002211466FF00900BDE80840FFF72B
:10075800ADBD00BF00ED00E010B588B0164B1748DE
:10076800002401941A6C42F004021A641A6C02F014
:1007780004020192019A02941A6B42F008021A6369
:100788001B6B03F008030293029B4FF4704303931F
:10079800012304930223059303A903230693FFF778
:1007A800E3FD22460F211E20FFF780FD1E20FFF7E4
:1007B800B1FD08B010BD00BF00380240000C024077
:1007C800054BD3F8882042F47002C3F888204FF014
:1007D80000629A60704700BF00ED00E0DFF834D097
:1007E800002103E00C4B5B58435004310B480C4B81
:1007F80042189A42F6D30B4A02E0002342F8043B1F
:10080800094B9A42F9D3FFF7DBFF00F011F8FFF725
:1008180053FF704700000220A008000800000020D5
:100828000C0000200C0000206C000020FEE70000F7
:1008380070B50D4E0D4CA41BA4100025A54209D17E
:100848000B4E0C4C00F018F8A41BA4100025A54270
:1008580005D170BD56F8253098470135EEE756F8B2
:10086800253098470135F2E79808000898080008ED
:10087800980800089C080008F8B500BFF8BC08BC38
:100888009E467047F8B500BFF8BC08BC9E46704746
:04089800AD010008A6
:04089C0089010008C6
:0C08A00001000000100000000024F40023
:04000005080007E503
:00000001FF
